:020000040800F2
:10000000E0C6002039850008250E0008270E0008EC
:100010002B0E00082F0E0008330E00080000000011
:10002000000000000000000000000000370E000883
:10003000390E0008000000003B0E00083D0E0008CD
:100040005385000853850008538500085385000830
:10005000538500085385000837360008538500088B
:10006000538500085F360008538500085385000853
:100070005385000853850008538500085385000800
:1000800053850008538500085385000853850008F0
:1000900053850008538500085385000885360008FD
:1000A00053850008538500085385000853850008D0
:1000B000F7B300089F3700085385000853850008F0
:1000C00053850008538500085385000853850008B0
:1000D00053850008AD840008538500085385000847
:1000E0005385000853850008538500085385000890
:1000F0005385000853850008538500085385000880
:1001000053850008F960000831390008538500085C
:1001100053850008538500086B3A00085385000892
:10012000538500085385000853850008538500084F
:1001300000F002F800F06BF80AA090E8000C82448E
:100140008344AAF10107DA4501D100F060F8AFF26B
:10015000090EBAE80F0013F0010F18BFFB1A43F0A5
:100160000103184748610100686101000A444FF02B
:10017000000C10F8013B13F0070408BF10F8014B06
:100180001D1108BF10F8015B641E05D010F8016B4B
:10019000641E01F8016BF9D113F0080F1EBF10F8AF
:1001A000014BAD1C0C1B09D16D1E58BF01F801CBD2
:1001B000FAD505E014F8016B01F8016B6D1EF9D555
:1001C0009142D6D37047000000230024002500266A
:1001D000103A28BF78C1FBD8520728BF30C148BFAA
:1001E0000B607047642912F0F785752912F0F485C9
:1001F000782912F02D86632913F0F580732913F006
:10020000FA80002070471FB51FBD10B510BD13F058
:1002100047F91146FFF7F7FF00F074FD13F065F999
:1002200003B4FFF7F2FF03BC08F0E2F81CB50124A9
:1002300008F068F808F0D0F84FF4E13008F0E7F87B
:1002400000F0EEFE00F014FF01F0B0FA00F030FF15
:1002500007F0C9F803F0A6F900F08FFF04F062F888
:1002600000200BF0DCFD0FF04BF9F7490122086884
:10027000F6A10DF0D4FAF44901224868F4A10DF07A
:10028000CEFA4FF47840F3490880F348416848209B
:1002900088474FF47840EF49088016E00024EFA02B
:1002A00010210B46C822CDE9001032211E2003F098
:1002B0003CF9C82008F063F84FF6FF704223F022A3
:1002C000322100901E2002F0AFFE0FF0FBFC002850
:1002D000E4D120461CBD0021E34A526822F003020B
:1002E000E14B5A601A46126822F080721A601A4670
:1002F000526822F470125A60821ED0B21A465268B6
:1003000042EA80425A601A46526842F480325A6089
:10031000D64A126842F01202D44B1A60D24A1268CE
:1003200042F08072D04B1A6000BFCF4A1268520E62
:10033000002AFAD0CC4A526842F00202CA4B5A60F4
:1003400005E0C94A5268C2F3870101F0030102299E
:10035000F7D1704710B50024C54841680020884790
:10036000C34890F8200000F08000E8B1C148008840
:10037000032190FBF1F0BE498989884201DD012407
:1003800012E0BC4800884000032190FBF1F0B8491E
:100390008989884201DD022406E0B5488089B54993
:1003A0000988884200DA03240DE0B1484168002042
:1003B0008847AF4890F8200000F0800000B904E0C2
:1003C000052007F0DCFF002CEFD100BF204610BD58
:1003D00070B5A948007802287ED1042001F025F8E4
:1003E0000021084600F032FF00F013FF0020A3496F
:1003F00008601020A2490860091F0860091D0860F4
:100400000120A049C1F8B80110209D49091F0860CA
:100410009D48007A002835D000252EE0002627E0F0
:1004200010209749086099488068C4B21020091FBD
:1004300008604FF6FF7000EA04241020091D0860D0
:10044000091F086004F4784091490880E01291493E
:100450000880641104F4FC608F4908808C4800888F
:10046000098808448B49098808448C490880761C0F
:1004700085488088B042D3D86D1C8348C088A84284
:10048000CCD826E0002520E0002619E010207C4989
:1004900008607E488068C4B21020091F08604FF6CB
:1004A000FF7000EA04241020091D08607748806866
:1004B000C0B204431020091F086078480480761CED
:1004C00071488088B042E1D86D1C6F48C088A8424E
:1004D000DAD84FF4807000E00CE009F0CAF900208F
:1004E000654908706E480078401C6D49087000200E
:1004F00000F09BFF70BD70B50646002510E02A464F
:1005000068A1304612F004FC012231466B480068B5
:100510000DF0B0F90446042C00D105E0681C85B24A
:100520004FF6FF708542EADB00BF70BDF0B591B0B9
:1005300005460026294608A80DF0F0FD044640F2C5
:10054000FF100790002007990BF02BFD069004BBCD
:100550000698F0B11BE0694608A80DF02EFE04468F
:1005600014B99DF8090000B912E00698007808B1A6
:10057000069801E00DF10900074638460FF006F82D
:10058000044604F0F000502801D1701C86B2E2E766
:1005900000BF304611B0F0BDFEB505460C46002D3B
:1005A00050D02046FFF7A7FF00204FF4A071CDE9FF
:1005B000001030484088A0F5A07606EBD670C0F356
:1005C0004F022C480088A0F1F00707EBD770C0F36A
:1005D0004F01F023204610F06FF860B100200C218D
:1005E00037A20B46CDE900210290F022822128207B
:1005F0000FF079FC8EE000200C2135A20B46CDE9EE
:1006000000210290F022822128200FF06CFC0020B3
:100610000C2132A20B46CDE900210290F022962156
:1006200028200FF060FC00200C210B46F022CDE9C1
:1006300000410290962152200FF055FC642007F0F3
:100640009EFE67E04EE0000044020020303A0000C9
:10065000313A0000220000202C010020466F6E7409
:10066000204572726F72210000100240002002408B
:10067000480000207002002028000020B801244219
:10068000140C0140000024428402002000100140AC
:100690000400002008000020060000200008006C74
:1006A00034000020303A504943545552452F5049A8
:1006B00043253035642E626D70000000500200202A
:1006C000D0B4C8EBCEC4BCFEB4EDCEF32100000024
:1006D000C5C4D5D5B3C9B9A621000000B1A3B4E6FD
:1006E000CEAA3A0000200C21FDA20B46CDE9002144
:1006F0000290F022822128200FF0F5FB00200C212F
:10070000FAA20B46CDE900210290F0229621282082
:100710000FF0E9FB4FF47A7007F031FE002001F092
:1007200030F8FEBD2DE9F04F95B04FF0000A1AE009
:1007300000201021F1A20B46CDE900210290F02209
:10074000AA211E200FF0CFFBC82007F018FE4FF69D
:10075000FF70BA23F022AA2100901E2002F064FC50
:10076000C82007F00CFEEAA10CA80DF0D7FC002869
:10077000DED1E7A0FFF7DAFE06461AE000201021DE
:10078000E6A20B46CDE900210290F022AA211E200C
:100790000FF0A9FBC82007F0F2FD4FF6FF70BA2357
:1007A000F022AA2100901E2002F03EFCC82007F093
:1007B000E6FD002EE2D040F2FF100B9000200B99D6
:1007C0000BF0EFFB0A9000200B990BF0EAFB804640
:1007D000710000200BF0E5FB07461AE00020102115
:1007E000D2A20B46CDE900210290F022BE211E20AC
:1007F0000FF079FBC82007F0C2FD4FF6FF7092237F
:10080000F022BE2100901E2002F00EFCC82007F04E
:10081000B6FD0A980028E1D0B8F1000FDED0002F15
:10082000DCD0BBA10CA80DF079FC05461DBB002453
:100830001FE0BDF836B004A90CA80DF0BEFC0546BB
:1008400015B99DF8190000B914E00A98007808B1AC
:100850000A9801E00DF11900039003980EF096FE3E
:10086000054605F0F000502803D127F814B0601CAD
:1008700084B2DEE700BF10F099FF0024A4A10CA809
:100880000DF04CFC05466EE037F814100CA80BF088
:1008900081FF04A90CA80DF090FC054615B99DF840
:1008A000190000B961E00A98007808B10A9801E0DF
:1008B0000DF119000390A1A1404612F0B9FB40468A
:1008C000039912F0F8FB002000F05BFF01219E4825
:1008D0004088CDE900019C4803880022114640462B
:1008E00011F02EF8012010210B46F022CDE90081F5
:1008F0000290022108460FF0F6FA31E0FFF72AFDD8
:100900008146B9F1010F06D114B1601E84B201E035
:10091000701E84B225E0B9F1030F05D1601C84B2CA
:10092000B44200DB00241CE0B9F1030F0ED1BAF190
:10093000000F01D1012000E000208246BAF1000F33
:1009400001D1012000E00020804908608048007843
:1009500018B1012015B0BDE8F08F0A2007F00FFD97
:10096000CCE700BF0025002D8ED000BF00200A99E3
:100970000BF007FB414600200BF003FB394600203B
:100980000BF0FFFA0020E5E72DE9FE4F00254FF0C0
:10099000010A5FA00DF0B0FD0646082E1DD0E6B19D
:1009A000002010216BA20B46CDE900210290F0221D
:1009B00096211E200FF097FAC82007F0E0FC0020D7
:1009C000102167A20B46CDE900210290F022AA2156
:1009D0001E200FF088FAAA4601E04FF0010A1E21FE
:1009E00000200BF0DEFA04461AE0002010214FA28E
:1009F0000B46CDE900210290F022BE211E200FF00F
:100A000072FAC82007F0BBFC4FF6FF709223F02269
:100A1000BE2100901E2002F007FBC82007F0AFFCAB
:100A2000002CE2D018E053A010210B46C822CDE9DB
:100A3000001082213C2002F078FDC82007F09FFCC6
:100A40004FF6FF70F623EF22822100903C2002F047
:100A5000EBFAC82007F093FC03F07AF80028E2D103
:100A600048A010210B46C822CDE9001082213C206D
:100A700002F05BFDF0234FF4A0720A21B02003F0D6
:100A8000E6F841F61F4142F2107003F009F802F057
:100A900025FE00203F49086000F073FE0020F0238F
:100AA0004FF4A0723C210090142003F0B7F924E128
:100AB000002000F017FB81463748007800B11DE1A7
:100AC0003648006813F0D2F90746354A354B12F024
:100AD000BBFF69D8002031490860022567E063E068
:100AE0005344BFA8B4EDCEF321000000C5C4D5D552
:100AF000B9A6C4DCB2BBBFC9D3C32100504943541B
:100B0000555245CEC4BCFEBCD0B4EDCEF32100009E
:100B1000303A2F504943545552450000C3BBD3D0FF
:100B2000CDBCC6ACCEC4BCFE21000000C4DAB4E625
:100B3000B7D6C5E4CAA7B0DC21000000303A2F5078
:100B40004943545552452F0070020020940123421E
:100B5000260000205344206572726F72210000004D
:100B600063616D6572612063616E277420757365C2
:100B7000210000004F5637363730204572726F72B1
:100B8000212100004F563736373020496E697420D6
:100B90004F4B0000BC012442270000200000002031
:100BA0009A9999999999B93F00207B490860042145
:100BB0007A4808F048F9E8B10821784808F043F984
:100BC000C0B10A2007F0DBFB0421744808F03BF9B0
:100BD00080B10821714808F036F958B10020102181
:100BE0006FA20B46CDE900210290F02201460FF0E2
:100BF0007AF90125012D28D141F61F4140F2E73055
:100C000002F0A0FD29036A4808F01DF928B1690324
:100C1000674808F018F900286DD10021654809F0EF
:100C200061FA0020644908606448007813F002FB10
:100C3000074663480168384613F044F9564908608E
:100C400000205E490870002555E0022D05D10325DE
:100C500021465046FFF7A0FC4DE0032D48D145E06A
:100C6000FFF7B6FB41F61F4140F2E73002F06AFDA4
:100C7000002000F037FA814652495148006813F0CD
:100C800021FB074613F082FAC82190FBF1F201FB29
:100C9000120060B901204849091F08604A48D0F88D
:100CA000A40108B9012000E000204349086043483E
:100CB00000781E280ED100213E4809F013FA0020CA
:100CC0003E4908703C49091F08603F49C1F8A4012A
:100CD00000250CE0B9F1010F08D100203649091FA9
:100CE00008603949C1F8A401002500E0B8E702E036
:100CF000052007F044FBFFF76BFBD9E600BF00209F
:100D0000BDE8FE8F1CB509E030A018210B46C822B3
:100D1000CDE9001032213C2002F007FCFFF786FAF3
:100D20000028F1D02DA010210B46C822CDE90010DB
:100D300032213C2002F0F9FB2CA010210B46C822E6
:100D4000CDE9001046211E2002F0EFFB2DA010215E
:100D50000B46C822CDE900105A21412002F0E5FBE4
:100D60002BA010210B46C822CDE900106E21412096
:100D700002F0DBFB00BF01E0FFF706FE274800782A
:100D80000028F9D103E0FFF7CDFC00B1F3E72448D8
:100D900000780028F7D11CBD000000200020014091
:100DA00050656F706C652052756E696E672100002A
:100DB0000014014000040040A481214230000020C2
:100DC0002C00002000007A4400802142496E6974A2
:100DD0005F416C6C206572726F72210057617253B3
:100DE0006869702053544D3332000000416E7469BD
:100DF0002D7468656674206F696C2050726F6A6527
:100E000063740000617574686F72405A5800000086
:100E1000323032312F382F313000000026000020D0
:100E200027000020704700BFFEE700BFFEE700BFBD
:100E3000FEE700BFFEE7704770477047704700004D
:100E40000CB50020019000906C48006840F48030A0
:100E50006A49086000BF6948006800F400300090EB
:100E60000198401C0190009818B90198B0F5A06F46
:100E7000F1D16248006800F4003010B10120009008
:100E800001E0002000900098012843D15C480068F0
:100E900040F010005A4908600846006820F003003E
:100EA00008600846006840F0020008605348406847
:100EB000524948600846406848600846406840F427
:100EC000806048600846406820F47C10486008460E
:100ED000406840F4E81048600846006840F08070C0
:100EE000086000BF4548006800F000700028F9D095
:100EF0004248406820F00300404948600846406886
:100F000040F00200486000BF3C48406800F00C0020
:100F10000828F9D10CBD10B5FFF792FF10BD10B530
:100F20003648006840F001003449086008464068CF
:100F30003449084031494860084600683249084051
:100F40002E4908600846006820F4802008600846A2
:100F5000406820F4FE0048604FF41F008860FFF7EF
:100F6000DAFF4FF000602949086010BD10B500217C
:100F700000200022214B5B6803F00C0121B1042901
:100F800006D0082928D107E0214B224C236027E016
:100F90001F4B204C236023E0184B5B6803F4701058
:100FA000164B5B6803F48032022303EB904022B9B6
:100FB000194B4343174C23600DE0104B5B6803F45F
:100FC000003323B1144B4343124C236003E0104B16
:100FD0004343104C236003E00D4B0E4C236000BFD5
:100FE00000BF064B5B68C3F303130C4CE15C094B79
:100FF0001B68CB40074C236010BD0000001002406E
:10100000002002400000FFF8FFFFF6FE08ED00E0C0
:1010100000127A000C00002000093D0010000020A2
:1010200008B50121482008F037F94FF40870ADF8F1
:10103000000010208DF8030003208DF8020069469F
:10104000174807F06DFE2021154807F016FF4FF4F2
:101050000071134807F013FF2020ADF80000694627
:10106000104807F05DFE20210E4807F006FF08BD7E
:101070000D48806940F008000B4988610848001D50
:10108000006820F00F000649091D08600846006846
:1010900040F0030008600020044908607047000029
:1010A000000C01400018014000100240A0812142C4
:1010B00008B50121442008F0EFF81820ADF8000031
:1010C00048208DF8030069463F4807F029FE0120BB
:1010D000ADF8000028208DF8030069463B4807F072
:1010E0001FFE08BD10B5044614B101203849087030
:1010F0003748007858B31021334807F0A4FE50B1A8
:101100000821314807F09FFE28B101212F4807F040
:101110009AFE01281BD10A2007F031F900202C4942
:1011200008701021284807F08EFE08B9012010BD74
:101130000821254807F087FE08B90220F7E70121BA
:10114000224807F080FE012815D10320EFE7102187
:101150001D4807F078FE01280DD108211A4807F034
:1011600072FE012807D10121184807F06CFE10B962
:101170000120174908700020D9E708B501214FF474
:10118000907008F089F80420ADF8000028208DF850
:10119000030069460F4807F0C3FD0820ADF80000C2
:1011A00028208DF8030069460A4807F0B9FD4FF47E
:1011B0004050ADF8000048208DF80300694606480D
:1011C00007F0AEFD08BD0000001801400008014016
:1011D000200000200020014000140140F749088051
:1011E0007047F649891C08807047F448801C0088C5
:1011F0007047F24A1080921C1180704710B5044667
:101200002046FFF7EBFF052007F095F8FFF7EDFF0D
:1012100010BDEB48C079E94908807047E749891C4F
:101220000880704730B5014601F01F04C1F3451333
:10123000CA0AE50205EB43151544A8B230BD00BF4C
:10124000011EA0F10102D0B2FAD1704710B50346D9
:101250000C46DB48808849F24131884205D0D848A5
:10126000808846F60401884214D1D549087AFFF7F0
:10127000B5FF1812FFF7B5FFD8B2FFF7B2FFD0499C
:10128000487AFFF7ABFF2012FFF7ABFFE0B2FFF7A2
:10129000A8FF12E0CA488079012804D1C848008814
:1012A000401EC01A83B2C649087A1946FFF7A1FF4B
:1012B000C349487A2146FFF79CFF10BD2DE9F04154
:1012C00005460E4600240027A046BD480088A842D7
:1012D00003DDBB484088B04202DC0020BDE8F0815D
:1012E00031462846FFF7B2FFB548808849F24131C0
:1012F000884205D0B248808846F60401884203D16E
:101300002E20FFF76BFF02E02220FFF767FFAC48BB
:10131000808849F22031884202D10220FFF78FFFF6
:10132000A648801C008800B100240220FFF787FF38
:10133000A248801C0488A248808849F24131884232
:101340000CD10220FFF77BFF9C48801CB0F8008086
:10135000E7B24FF6FF7000EA072708E09848808858
:1013600046F60401884202D19448801C04889448BF
:10137000808849F22531884216D09148808844F20D
:101380003551884210D08E488088091F88420BD082
:101390008B48808848F68911884205D08848808823
:1013A0004BF20551884201D1204697E78448808856
:1013B00049F24131884207D1E012C002B91240EA35
:1013C000411040EAE82089E72046FFF72BFF85E738
:1013D00000B57B48808849F24131884205D0784881
:1013E000808846F60401884203D12920FFF7F6FEE3
:1013F00004E040F273110720FFF7FBFE00BD00B5CB
:101400006F48808849F24131884205D06C48808815
:1014100046F60401884203D12820FFF7DFFE03E0EF
:1014200000210720FFF7E5FE00BD70B5044600234C
:1014300000266348807901281ED16148808846F6DD
:101440000401884218D0082C15D2DFE804F0040605
:10145000080A0C0E101206240DE007240BE00424E9
:1014600009E0052407E0012405E0002403E003244B
:1014700001E0022400BF00BF5148808849F2413199
:10148000884205D04E48808846F6040188427CD1C7
:10149000082C1CD2DFE804F00406090C0F12151802
:1014A00000BF14E043F0800311E043F040030EE07E
:1014B00043F0C0030BE043F0200308E043F0600377
:1014C00005E043F0A00302E043F0E00300BF00BFEB
:1014D000362643F008033A48808846F604018842DD
:1014E00001D143F0020319463046FFF782FE03F0B4
:1014F000200068B13248008831494988884214DAAE
:101500002F48058840882E490880084645800CE011
:101510002B4800882A494988884206DD28480588E2
:10152000408827490880084645802549087AFFF702
:1015300055FE0020FFF755FE0020FFF752FE204920
:101540000988491EC1F30F20FFF74BFE1C4909789B
:10155000491EC8B2FFF745FE1949487AFFF73EFE1B
:101560000020FFF73EFE0020FFF73BFE14494988AC
:10157000491EC1F30F20FFF734FE11498978491E37
:10158000C8B2FFF72EFE36E0FFE7082C20D2DFE8D6
:1015900004F004070A0D0F12191C43F0300317E082
:1015A00043F0100314E043F0200311E000BF0FE00C
:1015B00043F038030CE043F0280309E0FE07006C19
:1015C0007002002043F0180302E043F0080300BF5C
:1015D00000BFFE48808848F68911884204D1112650
:1015E00046F24000034302E0032643F480531946C9
:1015F0003046FFF7FEFD70BD30B504460D46294666
:101600002046FFF723FEFFF704FEF1480088F1496A
:10161000088030BD30B503460C461546EB4880883F
:1016200049F24131884205D0E848808846F60401F5
:10163000884214D1E549087AFFF7D0FD1812FFF768
:10164000D0FDD8B2FFF7CDFDE049487AFFF7C6FDDF
:101650002012FFF7C6FDE0B2FFF7C3FD12E0DB4842
:101660008079012804D1D9480088401EC01A83B26D
:10167000D649087A1946FFF7BCFDD449487A214675
:10168000FFF7B7FDD148C079D249891E0880881C70
:10169000058030BD10B50446002C3DD1CB49887182
:1016A000F02008804FF4A07048800846808849F2F6
:1016B0004131884205D0C548808846F604018842F9
:1016C00014D12C20C149C8712A2008722B204872DD
:1016D0000846808846F6040188424ED14FF4A07037
:1016E000BA4908804FF4F070488046E0B7488088D7
:1016F00048F68911884207D12220B449C8714E208A
:1017000008724F20487238E02220B049C87120206A
:1017100008722120487230E0AC48808846F6040107
:1017200088422AD00120A94988714FF4A07008800E
:10173000F02048800846808849F24131884207D12C
:101740002C20A249C8712A2008722B20487214E06C
:101750009E48808848F68911884207D122209B49FB
:10176000C8714F2008724E20487206E02220974927
:10177000C87121200872202048720020FFF755FE12
:1017800010BD70B504460026904805884088454342
:1017900000210846FFF75AFDFFF73BFD00BF02E0BE
:1017A0008C480480761CAE42FAD370BD00B59FB061
:1017B0000121080207F063FD012140F2691007F0E2
:1017C0006BFD0120ADF8780010208DF87B00032020
:1017D0008DF87A001EA9804807F0A2FA4CF2337007
:1017E000ADF8780018208DF87B0003208DF87A0082
:1017F0001EA97A4807F094FA4FF68070ADF8780089
:1018000018208DF87B0003208DF87A001EA97448FB
:1018100007F086FA41F20100ADF8780018208DF843
:101820007B0003208DF87A001EA96E4807F078FA35
:1018300001200890002009900F200A9000200B90B2
:101840000C900D900E9001900290032003900020C8
:10185000049005900690079006200F9000201090AD
:101860001190102012900020139015901490169053
:1018700017904FF480501890002019904FF480403A
:101880001A9000201B9008A81C9001A81D900FA87A
:1018900006F02CFF0121062007F090F8322006F018
:1018A0006EFD01210020FFF7A4FC322006F067FD49
:1018B0000020FFF7A3FC4549888008468088FF2860
:1018C0000ADB084680884FF6FF71884204D03F4803
:1018D0008088B0F5134F4BD1D320FFF77FFCFFF783
:1018E00084FCFFF782FCFFF780FC384988800846BB
:1018F00080884FF6FF7101EA002034498880FFF7A5
:1019000074FC3249898808433049888008468088B9
:1019100049F2413188421BD0BF20FFF75FFCFFF73F
:1019200064FCFFF762FCFFF760FCFFF75EFC2749F1
:101930008880084680884FF6FF7101EA002023491D
:101940008880FFF752FC2149898808431F49888015
:101950001E48808849F24131884209D01B4880885E
:1019600046F60401884203D049F241301749888085
:10197000164881881CA011F0BFF91448808849F2EC
:10198000413188427ED1CF20FFF728FC0020FFF7AD
:1019900028FCC120FFF725FC3020FFF722FCED20BA
:1019A000FFF71CFC6420FFF71CFC0320FFF719FC69
:1019B0001220FFF716FC8120FFF713FCE820FFF749
:1019C0000DFC8520FFF70DFC102015E070020020B3
:1019D000220000200008006C000C014000140140AF
:1019E0000018014000200140204C43442049443A63
:1019F00025780D0A00000000FFF7F3FB7A20FFF7BF
:101A0000F0FBCB20FFF7EAFB3920FFF7EAFB2C20A5
:101A1000FFF7E7FB0020FFF7E4FB3420FFF7E1FBD3
:101A20000220FFF7DEFBF720FFF7D8FB2020FFF7AF
:101A3000D8FBEA20FFF7D2FB0020FFF7D2FB002003
:101A4000FFF7CFFBC020FFF7C9FB1B20FFF7C9FB47
:101A5000C120FFF7C3FB0120FFF7C3FBC520FFF741
:101A6000BDFB3020FFF7BDFB3020FFF7BAFBC720DE
:101A7000FFF7B4FBB720FFF7B4FB3620FFF7AEFB50
:101A8000482000E0AEE0FFF7ACFB3A20FFF7A6FBF2
:101A90005520FFF7A6FBB120FFF7A0FB0020FFF7C2
:101AA000A0FB1A20FFF79DFBB620FFF797FB0A204B
:101AB000FFF797FBA220FFF794FBF220FFF78EFBC6
:101AC0000020FFF78EFB2620FFF788FB0120FFF7A1
:101AD00088FBE020FFF782FB0F20FFF782FB2A2024
:101AE000FFF77FFB2820FFF77CFB0820FFF779FB3F
:101AF0000E20FFF776FB0820FFF773FB5420FFF75B
:101B000070FBA920FFF76DFB4320FFF76AFB0A205B
:101B1000FFF767FB0F20FFF764FB0020FFF761FB77
:101B20000020FFF75EFB0020FFF75BFB0020FFF7C4
:101B300058FBE120FFF752FB0020FFF752FB152076
:101B4000FFF74FFB1720FFF74CFB0720FFF749FB80
:101B50001120FFF746FB0620FFF743FB2B20FFF782
:101B600040FB5620FFF73DFB3C20FFF73AFB0520EA
:101B7000FFF737FB1020FFF734FB0F20FFF731FB97
:101B80003F20FFF72EFB3F20FFF72BFB0F20FFF737
:101B900028FB2B20FFF722FB0020FFF722FB002071
:101BA000FFF71FFB0120FFF71CFB3F20FFF719FB8E
:101BB0002A20FFF713FB0020FFF713FB0020FFF79D
:101BC00010FB0020FFF70DFBEF20FFF70AFB1120B1
:101BD000FFF704FB782006F0D2FB2920FFF7FEFA7E
:101BE00001F016BAFE48808846F6040188427CD18E
:101BF0001120FFF7F3FA142006F0C1FBD020FFF705
:101C0000EDFA0720FFF7EDFA4220FFF7EAFA1D2070
:101C1000FFF7E7FAD120FFF7E1FA0020FFF7E1FA3A
:101C20001A20FFF7DEFA0920FFF7DBFAD220FFF7D0
:101C3000D5FA0120FFF7D5FA2220FFF7D2FAC0200B
:101C4000FFF7CCFA1020FFF7CCFA3B20FFF7C9FAD8
:101C50000020FFF7C6FA0220FFF7C3FA1120FFF7B2
:101C6000C0FAC520FFF7BAFA0320FFF7BAFAC82076
:101C7000FFF7B4FA0020FFF7B4FA2520FFF7B1FA16
:101C80002120FFF7AEFA0520FFF7ABFA0020FFF79F
:101C9000A8FA0A20FFF7A5FA6520FFF7A2FA252087
:101CA000FFF79FFA7720FFF79CFA5020FFF799FA89
:101CB0000F20FFF796FA0020FFF793FAF820FFF7BE
:101CC0008DFA0120FFF78DFAFE20FFF787FA00203A
:101CD000FFF787FA0220FFF784FA2020FFF77EFA49
:101CE0003620FFF77BFA082000E02CE0FFF779FAB6
:101CF0003A20FFF773FA5520FFF773FA2B20FFF70E
:101D00006DFA0020FFF76DFA0020FFF76AFA012054
:101D1000FFF767FA3F20FFF764FA2A20FFF75EFA21
:101D20000020FFF75EFA0020FFF75BFA0120FFF7C3
:101D300058FADF20FFF755FA782006F020FB29201B
:101D4000FFF74CFA4CE7A648808849F225318842D3
:101D50007ED147F6F001E520FFF74BFA4FF4807192
:101D60000120FFF746FA4FF4E0610220FFF741FA45
:101D700041F230010320FFF73CFA00210420FFF775
:101D800038FA40F202210820FFF733FA0021092037
:101D9000FFF72FFA00210A20FFF72BFA00210C2071
:101DA000FFF727FA00210D20FFF723FA00210F206B
:101DB000FFF71FFA00211020FFF71BFA072111205F
:101DC000FFF717FA00211220FFF713FA0021132062
:101DD000FFF70FFA00210720FFF70BFA41F290619D
:101DE0001020FFF706FA40F227211120FFF701FA31
:101DF0009D211220FFF7FDF94FF4C8511320FFF782
:101E0000F8F925212920FFF7F4F90D212B20FFF700
:101E1000F0F907213020FFF7ECF940F203313120CF
:101E2000FFF7E7F903213220FFF7E3F940F206213B
:101E30003520FFF7DEF908213620FFF7DAF940F206
:101E400006413720FFF7D5F94FF44171382000E003
:101E500057E0FFF7CEF907213920FFF7CAF940F222
:101E600002613C20FFF7C5F908213D20FFF7C1F9C9
:101E700000215020FFF7BDF9EF215120FFF7B9F9FC
:101E800000215220FFF7B5F940F23F115320FFF730
:101E9000B0F94FF427416020FFF7ABF90121612031
:101EA000FFF7A7F900216A20FFF7A3F9002180209E
:101EB000FFF79FF900218120FFF79BF90021822085
:101EC000FFF797F900218320FFF793F90021842081
:101ED000FFF78FF900218520FFF78BF91021902063
:101EE000FFF787F94FF4C0619220FFF782F940F2C3
:101EF00033110720FFF77DF922210020FFF779F940
:101F00006EE63748808849F2283188426AD141F22A
:101F10008F01EC20FFF76DF941F23421EF20FFF73C
:101F200068F94FF480710120FFF763F94FF4E06125
:101F30000220FFF75EF941F230010320FFF759F963
:101F400000210420FFF755F940F202210820FFF795
:101F500050F900210920FFF74CF900210A20FFF772
:101F600048F901210C20FFF744F900210D20FFF76B
:101F700040F900210F20FFF73CF900211020FFF766
:101F800038F907211120FFF734F900211220FFF75B
:101F900030F900211320FFF72CF901210720FFF76A
:101FA00028F9322006F0EBF941F290411020FFF7BA
:101FB00020F940F227211120FFF71BF9322006F00B
:101FC000DEF98A211220FFF714F9322006F0D7F942
:101FD0004FF4D0511320FFF70CF90621292002E01D
:101FE000700200208AE0FFF704F90D212B20FFF793
:101FF00000F9322006F0C3F900212020FFF7F9F89C
:1020000000212120FFF7F5F8322006F0B8F9002171
:102010003020FFF7EEF840F204613120FFF7E9F8D5
:1020200040F205313220FFF7E4F800213520FFF7B8
:10203000E0F840F609413620FFF7DBF84FF4017174
:102040003720FFF7D6F840F201313820FFF7D1F8FA
:1020500040F207713920FFF7CCF800213C20FFF750
:10206000C8F840F60A213D20FFF7C3F8322006F0F9
:1020700086F900215020FFF7BCF8EF215120FFF72F
:10208000B8F800215220FFF7B4F840F23F11532076
:10209000FFF7AFF84FF427416020FFF7AAF80121BE
:1020A0006120FFF7A6F800216A20FFF7A2F80021BF
:1020B0008020FFF79EF800218120FFF79AF8002189
:1020C0008220FFF796F800218320FFF792F8002185
:1020D0008420FFF78EF800218520FFF78AF8102171
:1020E0009020FFF786F84FF4C0619220FFF781F847
:1020F00040F233110720FFF77CF871E5FE48808835
:1021000049F2203188427DD100210846FFF771F85D
:102110004FF480710120FFF76CF84FF4E06102206A
:10212000FFF767F841F230010320FFF762F8002162
:102130000420FFF75EF840F202210820FFF759F86B
:1021400000210920FFF755F800210A20FFF751F878
:1021500001210C20FFF74DF800210D20FFF749F871
:1021600000210F20FFF745F8322006F008F940F271
:1021700001110720FFF73DF8322006F000F94FF477
:1021800086511020FFF735F807211120FFF731F8AD
:102190004FF488711220FFF72CF84FF430611320B0
:1021A000FFF727F800212920FFF723F844F2100158
:1021B0002B20FFF71EF800215020FFF71AF8EF211F
:1021C0005120FFF716F800215220FFF712F840F2D5
:1021D0003F115320FFF70DF84FF41C516020FFF71B
:1021E00008F801216120FFF704F800216A20FFF7B9
:1021F00000F800218020FEF7FCFF00218120FEF77F
:10220000F8FF00E02EE000218220FEF7F2FF00211F
:102210008320FEF7EEFF00218420FEF7EAFF002175
:102220008520FEF7E6FF10219020FEF7E2FF002157
:102230009220FEF7DEFF01219320FEF7DAFF4FF434
:1022400088719520FEF7D5FF00219720FEF7D1FF7A
:1022500000219820FEF7CDFF40F273110720FEF712
:10226000C8FFBDE4A448808849F2313188427DD15D
:1022700041F21401E720FEF7BCFF4FF4807101200A
:10228000FEF7B7FF4FF400710220FEF7B2FF41F2F4
:1022900038010320FEF7ADFF40F202210820FEF7CF
:1022A000A8FF00210920FEF7A4FF00210A20FEF765
:1022B000A0FF00210C20FEF79CFF00210D20FEF75F
:1022C00098FF00210F20FEF794FF00211020FEF759
:1022D00090FF07211120FEF78CFF00211220FEF74E
:1022E00088FF00211320FEF784FFC82006F047F87E
:1022F00041F290611020FEF77CFF40F2272111206F
:10230000FEF777FF322006F03AF80C211220FEF794
:1023100070FF322006F033F84FF400611320FEF70F
:1023200068FF11212920FEF764FF0B212B20FEF707
:1023300060FF322006F023F800212020FEF759FF2D
:1023400040F23F112120FEF754FF00213020FEF71C
:1023500050FF4FF483713120FEF74BFF00213220F4
:10236000FEF747FF4FF40171352000E064E0FEF70F
:1023700040FF41F20A613620FEF73BFF40F2077151
:102380003720FEF736FF4FF483713820FEF731FF18
:1023900040F207713920FEF72CFF40F202413C2049
:1023A000FEF727FF40F60F413D20FEF722FF0021F8
:1023B0005020FEF71EFFEF215120FEF71AFF0021EB
:1023C0005220FEF716FF40F23F115320FEF711FF97
:1023D0004FF41C516020FEF70CFF01216120FEF735
:1023E00008FF00216A20FEF704FF00218020FEF78D
:1023F00000FF00218120FEF7FCFE00218220FEF775
:10240000F8FE00218320FEF7F4FE00218420FEF771
:10241000F0FE00218520FEF7ECFE10219020FEF753
:10242000E8FE4FF4C0619220FEF7E3FE40F2331164
:102430000720FEF7DEFE85E42F48808845F208413C
:1024400088427DD14FF480710120FEF7D2FE4FF417
:10245000E0610220FEF7CDFE41F230010320FEF7DD
:10246000C8FE00210420FEF7C4FE40F20721082028
:10247000FEF7BFFE00210920FEF7BBFE00210A2067
:10248000FEF7B7FE00210C20FEF7B3FE00210D2061
:10249000FEF7AFFE00210F20FEF7ABFE142005F083
:1024A0006EFF41F2B0611020FEF7A3FE0121112062
:1024B000FEF79FFE01211720FEF79BFE4FF49C7153
:1024C0001220FEF796FE4FF400611320FEF791FEF6
:1024D00009212920FEF78DFE09212A20FEF789FE19
:1024E0000021A420FEF785FE00215020FEF781FE8A
:1024F000EF21512002E0000070020020FEF779FE7B
:1025000000215220FEF775FE40F23F115320FEF7E6
:1025100070FE4FF41C516020FEF76BFE012161201C
:10252000FEF767FE00216A20FEF763FE002180208F
:10253000FEF75FFE00218120FEF75BFE002100E038
:1025400028E08220FEF755FE00218320FEF751FE91
:1025500000218420FEF74DFE00218520FEF749FE74
:1025600013219020FEF745FE00219220FEF741FE48
:1025700003219320FEF73DFE4FF488719520FEF76E
:1025800038FE40F273110720FEF733FE322005F0CB
:10259000F6FEB5E4FE48808841F2055188427DD1BF
:1025A00000210720FEF725FE322005F0E8FE4FF45B
:1025B0008E711220FEF71DFE0121A420FEF719FEE8
:1025C0000F210820FEF715FE08210A20FEF711FE54
:1025D00008210D20FEF70DFE40F207713020FEF7B6
:1025E00008FE07213120FEF704FE40F2036132208D
:1025F000FEF7FFFD4FF4E0613320FEF7FAFD40F2F5
:1026000002213420FEF7F5FD02213520FEF7F1FD11
:1026100041F60F713620FEF7ECFD40F207713720CE
:10262000FEF7E7FD00213820FEF7E3FD0021392009
:10263000FEF7DFFD40F207713A20FEF7DAFD0021D8
:102640003B20FEF7D6FD07213C20FEF7D2FD0021FE
:102650003D20FEF7CEFD322005F091FE012107203E
:10266000FEF7C7FD01211720FEF7C3FD322005F05C
:1026700086FE4FF4BD511020FEF7BBFD40F217213E
:102680001120FEF7B6FD4FF48F711220FEF7B1FD59
:102690004FF470611320FEF7ACFD00E095E00021DF
:1026A0002A20FEF7A6FD0A212920FEF7A2FD4FF4FD
:1026B0009F711220FEF79DFD00215020FEF799FD2D
:1026C000EF215120FEF795FD00215220FEF791FDEC
:1026D00040F23F115320FEF78CFD4FF41C51602057
:1026E000FEF787FD01216120FEF783FD00216A20AE
:1026F000FEF77FFD00218020FEF77BFD0021812079
:10270000FEF777FD00218220FEF773FD0021832074
:10271000FEF76FFD00218420FEF76BFD0021852070
:10272000FEF767FD13219020FEF763FD4FF4407123
:102730009220FEF75EFD05219320FEF75AFD002151
:102740009520FEF756FD00219720FEF752FD00214F
:102750009820FEF74EFD4FF480710120FEF749FDF1
:102760004FF4E0610220FEF744FD41F238010320FE
:10277000FEF73FFD00210420FEF73BFD00210C2069
:10278000FEF737FD00210F20FEF733FD002120204A
:10279000FEF72FFD00212120FEF72BFD2121072030
:1027A000FEF727FD142005F0EAFD61210720FEF762
:1027B00020FD142005F0E3FD40F273110720FEF721
:1027C00018FD142005F0DBFD97E4714880884BF27A
:1027D000055188427ED100210846FEF70AFD0021FE
:1027E0000846FEF706FD00210846FEF702FD00211F
:1027F0000846FEF7FEFC0121A420FEF7FAFC142097
:1028000005F0BDFD4FF41C516020FEF7F2FC40F2D4
:1028100002210820FEF7EDFC4FF405713020FEF791
:10282000E8FC43F215713120FEF7E3FC40F204614D
:102830003220FEF7DEFC40F616613320FEF7D9FCAD
:1028400042F211213420FEF7D4FC4FF4A851352078
:10285000FEF7CFFC48F207513620FEF7CAFC41F2E2
:1028600007413720FEF7C5FC41F203413820FEF74F
:10287000C0FC20213920FEF7BCFC1A219020FEF775
:10288000B8FC00211020FEF7B4FC07211120FEF750
:10289000B0FC00211220FEF7ACFC00211320FEF753
:1028A000A8FC142005F06BFD4FF4E6611020FEF744
:1028B000A0FC40F237111120FEF79BFC142005F01C
:1028C0005EFD4FF4DC711220FEF793FC142005F03E
:1028D00056FD00E087E04FF470611320FEF789FC9D
:1028E00080212A20FEF785FC48212920FEF781FC63
:1028F000142005F044FD4FF480710120FEF779FCAF
:102900004FF4E0610220FEF774FC41F2380103202D
:10291000FEF76FFC40F202210820FEF76AFC00215E
:102920000A20FEF766FC00210C20FEF762FC002165
:102930000D20FEF75EFC30210E20FEF75AFC002130
:102940005020FEF756FCEF215120FEF752FC0021EB
:102950005220FEF74EFC40F23F115320FEF749FC97
:102960004FF41C516020FEF744FC01216120FEF76A
:1029700040FC00216A20FEF73CFC11219020FEF76C
:1029800038FC4FF4C0619220FEF733FC02E00000F7
:102990007002002040F202419320FEF72AFC02213F
:1029A0009420FEF726FC142005F0E9FC0121072005
:1029B000FEF71FFC142005F0E2FC61210720FEF762
:1029C00018FC40F273110720FEF713FC00212020B1
:1029D000FEF70FFC00212120FEF70BFC2221002036
:1029E000FEF707FC14E3FE4880884CF2055188424C
:1029F0007ED100210846FEF7FCFB00210846FEF7C9
:102A0000F8FB142005F0BBFC00210846FEF7F1FBA3
:102A100000210846FEF7EDFB00210846FEF7E9FB22
:102A200000210846FEF7E5FB0121A420FEF7E1FBAB
:102A3000142005F0A4FC4FF41C516020FEF7D9FBD4
:102A400040F606010820FEF7D4FB40F20371302067
:102A5000FEF7CFFB01213120FEF7CBFB0421322012
:102A6000FEF7C7FB4FF481713320FEF7C2FB4FF432
:102A700040713420FEF7BDFB40F203113520FEF714
:102A8000B8FB1F213620FEF7B4FB40F2037137205C
:102A9000FEF7AFFB01213820FEF7ABFB0421392004
:102AA000FEF7A7FB15219020FEF7A3FB4FF48261F0
:102AB0001020FEF79EFB40F247211120FEF799FB04
:102AC0004FF4DE711220FEF794FB4FF46061132087
:102AD000FEF78FFB782005F052FC4FF48071012047
:102AE000FEF787FB4FF400710220FEF782FB00E047
:102AF00050E041F230010320FEF77BFB08210A2061
:102B0000FEF777FB00210C20FEF773FB20210E203F
:102B1000FEF76FFB00210F20FEF76BFB002120204A
:102B2000FEF767FB00212120FEF763FB3D212A20F1
:102B3000FEF75FFB142005F022FC2D212920FEF773
:102B400058FB00215020FEF754FB4DF2EF015120BD
:102B5000FEF74FFB00215220FEF74BFB40F23F11E6
:102B60005320FEF746FB00216120FEF742FB0021C7
:102B70006A20FEF73EFB4FF440719220FEF739FBCE
:102B800005219320FEF735FB4FF480710720FEF7F7
:102B900030FB3DE29248808848F6891188427DD119
:102BA00001210020FEF725FB4AF6A4010320FEF7D1
:102BB00020FB00210C20FEF71CFB40F60C010D2031
:102BC000FEF717FB4FF42C510E20FEF712FBB0213D
:102BD0001E20FEF70EFB42F63F310120FEF709FBF7
:102BE0004FF4C0610220FEF704FB00211020FEF725
:102BF00000FB46F278011120FEF7FBFA00210520C8
:102C0000FEF7F7FA00210620FEF7F3FA4EF61C71E4
:102C10001620FEF7EEFA03211720FEF7EAFA40F23B
:102C200033210720FEF7E5FA00210B20FEF7E1FA39
:102C300000210F20FEF7DDFA00214120FEF7D9FA2E
:102C400000214220FEF7D5FA00214820FEF7D1FAF4
:102C500040F23F114920FEF7CCFA00214A20FEF74E
:102C6000C8FA00214B20FEF7C4FA4FF46F4144200C
:102C7000FEF7BFFA00214520FEF7BBFA40F23F11F4
:102C80004620FEF7B6FA40F207713020FEF7B1FA9F
:102C90004FF401713120FEF7ACFA00E03DE04FF453
:102CA00001713220FEF7A5FA40F202513320FEF7FF
:102CB000A0FA40F207513420FEF79BFA4FF401715D
:102CC0003520FEF796FA4FF401713620FEF791FA9F
:102CD00040F202513720FEF78CFA40F202313A20DE
:102CE000FEF787FA40F202313B20FEF782FA00211C
:102CF0002320FEF77EFA00212420FEF77AFA4FF413
:102D000000412520FEF775FA00214F20FEF771FAE9
:102D100000214E20FEF76DFA7AE13148808844F2B6
:102D2000315188427DD101210020FEF762FA0A204C
:102D300005F025FB41F228611020FEF75AFA0E211A
:102D40001220FEF756FA40F639211320FEF751FA09
:102D50000A2005F014FB40211120FEF74AFA502109
:102D60001520FEF746FA0A2005F009FB1E21122065
:102D7000FEF73FFA0A2005F002FB4FF4B151102094
:102D8000FEF737FA42F639211320FEF732FA0A200D
:102D900005F0F5FA4FF480710120FEF72AFA4FF49E
:102DA00040710220FEF725FA41F238010320FEF7B8
:102DB00020FA40F202210820FEF71BFA08210A201F
:102DC000FEF717FA00213020FEF713FA40F2024115
:102DD0003120FEF70EFA4FF48371322002E000003A
:102DE00070020020FEF705FA40F203513320FEF78F
:102DF00000FA4FF482713420FEF7FBF940F2013102
:102E00003520FEF7F6F940F207713620FEF7F1F9AA
:102E100040F205313720FEF7ECF94FF4027138200B
:102E200000E040E0FEF7E5F940F60B713920FEF7CF
:102E3000E0F902214120FEF7DCF94FF41C5160203B
:102E4000FEF7D7F901216120FEF7D3F94FF40471A1
:102E50009020FEF7CEF94FF485719220FEF7C9F964
:102E600004219320FEF7C5F94FF48071A020FEF7EE
:102E7000C0F901210720FEF7BCF921210720FEF748
:102E8000B8F923210720FEF7B4F933210720FEF714
:102E9000B0F940F233110720FEF7ABF90021A02072
:102EA000FEF7A7F9B4E0FB48808844F23551884228
:102EB000F8D130211520FEF79CF910219A20FEF759
:102EC00098F920211120FEF794F943F228411020AF
:102ED000FEF78FF902211220FEF78BF941F238013B
:102EE0001320FEF786F9282005F049FA122108463A
:102EF000FEF77FF9282005F042FA43F22041102026
:102F0000FEF777F943F238011320FEF772F94620F5
:102F100005F035FA00213020FEF76BF940F202414E
:102F20003120FEF766F940F207313220FEF761F9F1
:102F30004FF441713320FEF75CF904213420FEF791
:102F400058F940F201413520FEF753F940F207717C
:102F50003620FEF74EF940F205313720FEF749F9E9
:102F60004FF4C2613820FEF744F94FF4C2613920B2
:102F7000FEF73FF94FF480710120FEF73AF94FF464
:102F800040710220FEF735F941F230010320FEF7CF
:102F900030F940F608010820FEF72BF908210A2035
:102FA000FEF727F94FF41C516020FEF722F90121AA
:102FB0006120FEF71EF94FF49F719020FEF719F97A
:102FC0004FF480719220FEF714F94FF48071932032
:102FD000FEF70FF94FF44051A020FEF70AF9102137
:102FE000A320FEF706F901210720FEF702F92121AF
:102FF0000720FEF7FEF823210720FEF7FAF8332119
:103000000720FEF7F6F840F233110720FEF7F1F83B
:103010000020FEF73FFB01209F4908604FF6FF703C
:10302000FEF7AFFB1FB000BD2DE9F04F05460E4681
:1030300017469846DDF824A04FF0000B781B401C83
:103040001FFA80FB344613E021462846FEF7FEF8BF
:10305000FEF7DFF84FF0000906E05046FEF7C1F832
:1030600009F101001FFA80F9D945F6DB601C84B232
:103070004445E9DDBDE8F08F2DE9F84F07460D46E0
:1030800090469946DDF828B0A8EB0700401C80B2B6
:103090000090A9EB0500401C1FFA80FA002415E0FF
:1030A000281981B23846FEF7D1F8FEF7B2F80026AB
:1030B00007E004FB0A603BF8100078490880701CA8
:1030C00086B200988642F4DB601C84B25445E7DB8C
:1030D000BDE8F88F2DE9FF4F84B081468A46002075
:1030E000039002900698A0EB09050798A0EB0A064A
:1030F000CDF80490CDF800A0002D01DD012705E0FA
:103100000DB9002702E04FF0FF376D42002E02DDBF
:103110004FF0010806E016B94FF0000802E04FF04A
:10312000FF387642B54201DD2C4600E034464FF0D0
:10313000000B21E0009A91B2019A90B2FEF75CFA7E
:103140000398284403900298304402900398A042C8
:1031500005DD0398001B0390019838440190029804
:10316000A04205DD0298001B0290009840440090A8
:103170000BF101001FFA80FB601C8345DADD08B00B
:10318000BDE8F08FF0B504460D4616461F462B46A7
:10319000324629462046FFF79DFF3B4622462946F8
:1031A0002046FFF797FF3B46324639462046FFF759
:1031B00091FF3B46324629463046FFF78BFFF0BD74
:1031C0002DE9F04306460F4690460024454603206D
:1031D000A0EB48093CE07A1B91B2321990B2FEF79D
:1031E0000BFA3A1B91B2721990B2FEF705FA3A192E
:1031F00091B2721990B2FEF7FFF97A1991B23219B1
:1032000090B2FEF7F9F97A1991B2321B90B2FEF73B
:10321000F3F93A1991B2721B90B2FEF7EDF97A1BED
:1032200091B2321B90B2FEF7E7F93A1B91B2721BD2
:1032300090B2FEF7E1F9641CB9F1000F03DAA000C7
:10324000801D814404E0601B80000A3081446D1EB3
:10325000AC42C0DDBDE8F0832DE9F84F05460F46CE
:1032600090461E4600970E48B0F80090A8F1200046
:1032700000F0FF080A98002859D1002454E00C2ED1
:1032800012D108EB4800074901EB800010F804A0B8
:103290000FE0000070020020808121420008006CD5
:1032A00022000020AA450108B94800EB081010F8D8
:1032B00004A04FF0000B31E00AF0800018B1B548CF
:1032C000A0F8009003E0B4480088B249088039466D
:1032D0002846FEF791F94FEA4A604FEA106A781CD7
:1032E00087B2AE480088A84204DCAA48A0F8009043
:1032F000BDE8F88F0098381AB0420BD1009F681CC7
:1033000085B2A6480088A84203DCA248A0F8009035
:10331000EEE706E00BF1010000F0FF0BBBF1080F38
:10332000CADB00BF601CC4B2B442A8DB44E0002486
:1033300040E00C2E07D108EB4800994901EB8000D2
:1033400010F804A004E0924800EB081010F804A064
:103350004FF0000B28E00AF0800018B139462846EB
:10336000FEF74AF94FEA4A604FEA106A781C87B2C2
:103370008A484088A84203DC8648A0F80090B7E756
:103380000098381AB0420BD1009F681C85B2834860
:103390000088A84203DC7F48A0F80090A8E706E078
:1033A0000BF1010000F0FF0BBBF1080FD3DB00BFF6
:1033B000601CC4B2B442BCDB7648A0F8009000BFE9
:1033C00096E710B50246012000E050430B1EA1F124
:1033D0000104E1B2F9D110BD2DE9FF4F81B00746DC
:1033E00091461E460E9D4FF0000A002439E0301B26
:1033F000401EC1B20A20FFF7E4FFB9FBF0F00A213A
:10340000B0FBF1F201FB1208BAF1000F16D1701EE9
:10341000A04213DDB8F1000F0ED10020AB4605EB42
:10342000DB71491001FB0471009088B22B46202209
:103430000299FFF711FF12E04FF0010A0020AB469E
:1034400005EBDB71491001FB0471009088B208F1B3
:103450003001CAB22B460299FFF7FEFE00BF601C86
:10346000C4B2B442C3DB05B0BDE8F08F2DE9FF4F15
:1034700082B0064692461F46DDE90F4800200190C3
:1034800000254DE0781B401EC1B20A20FFF799FFCE
:10349000BAFBF0F00A21B0FBF1F201FB120901982E
:1034A00050BB781EA84227DDB9F1000F22D108F0E9
:1034B000800078B108F00100A34604EBDB714910ED
:1034C00001FB0561009088B2234630220399FFF783
:1034D000C3FE0EE008F00100A34604EBDB714910C7
:1034E00001FB0561009088B2234620220399FFF773
:1034F000B3FE13E00120019008F00100A34604EBA5
:10350000DB71491001FB0561009088B209F13001BF
:10351000CAB223460399FFF79FFE00BF681CC5B2DD
:10352000BD42AFDB06B0BDE8F08F2DE9F847044699
:103530000D4690469946DDE9096704F0FF0A08EB5D
:1035400004001FFA80F809EB05001FFA80F916E065
:10355000444502DB5446A81985B24D4500DB14E012
:10356000002000903A78334629462046FFF774FE43
:10357000304606EBD07104EB61018CB27F1C3878C9
:103580007E2802DC38782028E2DA00BFBDE8F88720
:103590001E4A0108220000202400002070020020A2
:1035A000AA4501080EB5FDF783FD0121442005F071
:1035B00073FE0321042005F0C9FC082001900020BF
:1035C0008DF808000C208DF8090001208DF80A0004
:1035D00001A806F0D7F80021084605F0B7FC012045
:1035E000019000208DF8080008208DF809000120C6
:1035F0008DF80A0001A806F0C5F806208DF8000035
:1036000002208DF8010003208DF8020001208DF8C2
:103610000300684604F0B5FF09208DF80000022081
:103620008DF8010001208DF802008DF80300684636
:1036300004F0A7FF0EBD10B50A2004F0A0FE012182
:10364000384805F000FC012805D1002036490870F3
:10365000012036490870012006F00BF910BD10B5A5
:103660000A2004F08CFE0821314805F0ECFB28B953
:1036700001202D49087000202C490870082006F010
:10368000F8F810BD10B54FF4807006F0E1F801288D
:103690001FD12848007802281BDA2648007850B944
:1036A00001202549086000202449C1F89801012023
:1036B0002349086008E000201F4908601F49C1F83D
:1036C000980101201E4908601A480078401C1949D9
:1036D00008704FF4807006F0CCF810BD0EB50821CC
:1036E000002005F033FC4FF48070019000208DF82D
:1036F000080008208DF8090001208DF80A0001A8B3
:1037000006F040F817208DF8000000208DF8010029
:103710008DF8020001208DF80300684604F031FFA7
:103720000EBD0000000801402600002027000020F8
:1037300000180140280000208C8121420080224294
:10374000988122427FB505460C460121022005F0F2
:10375000B0FDADF80850ADF804400020ADF80A0007
:10376000ADF8060001A9E54806F060F90122412103
:10377000E24806F0D2FC1D208DF8000000208DF8F4
:10378000010003208DF8020001208DF80300684637
:1037900004F0F7FE0121D94806F0A4FC7FBD2DE915
:1037A000F0410121D54806F066FF58B30121D34806
:1037B00006F072FF0120D2490860D248006810F07C
:1037C00055FB0646D04AD14B0FF0F8FE04460FF0E9
:1037D000C3FECC4908604FF07E51CA48006810F023
:1037E000A1FC07D1CA480078401CC94908700020D4
:1037F000C4490860C748006808B9012000E00020FB
:10380000C4490860BDE8F08130B589B005460C4672
:103810000121022005F04DFD0121092005F03CFDAC
:103820000121BD4805F04DFB2020ADF820001820F7
:103830008DF8230003208DF8220008A9B74805F071
:103840006FFAADF81850ADF814400020ADF81A002A
:10385000ADF8160005A9A94806F0E8F87020ADF803
:1038600004000120ADF806000020ADF80A00ADF814
:103870000C0001A9A14806F058F908219F4806F05C
:103880006AFD01219D4806F02DFD01219B4806F0AF
:1038900029FC09B030BD30B585B005460C46012184
:1038A000082005F006FD0121042005F0F5FC0120AB
:1038B000ADF8100028208DF8130004A9984805F0F1
:1038C0002FFA0121964805F0DAFAADF80850ADF864
:1038D00004400020ADF80A00ADF8060001A99148A7
:1038E00006F0A4F8002090490880488001208880D4
:1038F0000020C88008818B4806F02BFB01218948F5
:1039000006F0F0FB01220321864806F006FC322077
:103910008DF8000002208DF8010000208DF80200D3
:1039200001208DF80300684604F02BFE05B030BD81
:1039300010B57E48007800F0800000284CD10121AD
:10394000784806F098FED0B17848007800F0400042
:10395000A8B17648007800F03F003F280AD17348AC
:10396000007840F08000714908704FF6FF70704990
:10397000088004E06D480078401C6C490870022102
:10398000684806F078FE38B36848007800F04000D8
:1039900078B16648007840F080006449087061485A
:1039A00006F04AFE6249088000215E4806F04CFDA0
:1039B00012E000205D4908705D49088000215948E7
:1039C00006F024FE5948007840F04000574908703E
:1039D0000221544806F038FD0321524806F05CFEEF
:1039E00010BD30B589B005460C460121042005F014
:1039F00060FC0121082005F04FFC4020ADF82000BC
:103A000018208DF8230003208DF8220008A94348D0
:103A100005F086F9ADF81850ADF814400020ADF867
:103A20001A00ADF8160005A9424805F0FFFF702006
:103A3000ADF804000120ADF806000020ADF80A0042
:103A40000220ADF80C0001A93A4806F02CF8082134
:103A5000384806F077FC0121364806F043FC012186
:103A6000344806F03FFB09B030BD10B501213248A3
:103A700006F001FE78B12748006808B9012000E08F
:103A80000020244908602D4801782DA00FF034F95A
:103A900000202A4908700121274806F0FDFD10BDCD
:103AA0007FB505460C460121102005F002FCADF85B
:103AB0000850ADF804400020ADF80A00ADF806004B
:103AC00001A91D4805F0B2FF012241211A4806F064
:103AD00024FB0121184806F005FB36208DF8000074
:103AE00001208DF8010003208DF8020001208DF8DF
:103AF0000300684604F045FD7FBD0000000400405F
:103B0000A48121422C0000209A9999999999B93F52
:103B1000300000209401234200081A00000C0140EC
:103B200000080140000C00407A0200203100002013
:103B30003200002000080040001000403400002047
:103B40006672616D653A25646670730D0A00000047
:103B500038B5002501214FF49E7005F09DFB4FF410
:103B60008070ADF8000048208DF8030003208DF828
:103B700002006946EB4805F0D3F81820ADF80000C4
:103B800010208DF803006946E74805F0C9F81821B0
:103B9000E54805F072F9FF20ADF8000048208DF8E7
:103BA00003006946E14805F0BBF84020ADF800008D
:103BB00010208DF803006946DD4805F0B1F840217A
:103BC000DB4805F05AF94FF44040ADF800001020F2
:103BD0008DF803006946D74805F0A2F84FF440413C
:103BE000D44805F04AF90121D34805F06AF900F0FC
:103BF000ABF98021122000F09FFA08B1012038BDF6
:103C0000322004F0BCFB0B2000F0B5FA0446732C04
:103C100001D00220F3E70A2000F0ADFA0446762C2A
:103C200001D00220EBE700250DE0C44A02EB45027B
:103C30005178C24A12F8150000F07EFA022004F012
:103C40009EFB681C85B2552DEFD30020D7E72DE9E8
:103C5000F04705460E461746984605EB47004FF4D9
:103C6000447190FBF1F201FB12001FFA80F906EBA0
:103C700048001FFA80FA322000F07DFA044604F072
:103C8000C00409F00701284661F3DF000443214620
:103C9000322000F051FAC5F3C701172000F04CFAAA
:103CA000C9F3C701182000F047FA032000F063FAB7
:103CB000044604F0F0040AF00301304661F39F006B
:103CC00004432146032000F037FAC6F38701192088
:103CD00000F032FACAF387011A2000F02DFABDE88D
:103CE000F08770B50446442534B1012C06D0032C6E
:103CF00006D0042C08D105E0302505E0382503E086
:103D0000502501E0602500BF00BF2946562000F085
:103D100013FA70BD70B504468D2534B1012C06D060
:103D2000032C06D0042C08D105E0B02505E0982529
:103D300003E0182501E0302500BF00BF29465520CB
:103D400000F0FAF970BD2DE9F0410446602519260E
:103D50003F2734B1012C08D0032C0AD0042C10D1F9
:103D60000BE0402511262F270BE066251B264B274D
:103D700007E099252826712703E0C02533268D27E3
:103D800000BF00BF29464F2000F0D6F92946502039
:103D900000F0D2F90021512000F0CEF93146522036
:103DA00000F0CAF93946532000F0C6F929465420DC
:103DB00000F0C2F99E21582000F0BEF9BDE8F08164
:103DC0002DE9F0410446E72500260027012C06D006
:103DD000022C08D0032C0AD0042C10D10BE0FD25B6
:103DE0005A265C270BE0FD255826602707E0FD25B5
:103DF00084264C2703E0FD259626402700BF00BF00
:103E00002946132000F098F93146012000F094F97A
:103E10003946022000F090F9BDE8F0812DE9F04725
:103E200005460E4617469846DDF820900024444883
:103E3000058046808780A0F8068080F80890B9F158
:103E4000000F11D000BF0CE03E4A02EB4402517853
:103E50003C4A12F8140000F06FF9022004F08FFAC7
:103E6000641C572CF0D310E000240CE0334A02EB22
:103E700044025178314A12F8140000F05DF9022032
:103E800004F07DFA641C552CF0D30020FFF798FF56
:103E90000220FFF758FF0220FFF73CFF0220FFF748
:103EA00020FF43463A460A21B020FFF7D0FE4FF6E6
:103EB000FF70FDF766FCBDE8F0872DE9F041044690
:103EC0000425C0268027072C1DD2DFE804F01C043F
:103ED000080C1014180024258026802713E01425D0
:103EE000802680270FE01425C02680270BE01425AC
:103EF0004026402707E014258026C02703E014252C
:103F0000A026402700BF00BF29463A2000F014F940
:103F10003146682000F010F93946672000F00CF9AE
:103F2000BDE8F08100080140000C01400010014094
:103F30000014014000200140000230000E50010832
:103F4000840200206451010808B501214FF49070EB
:103F500005F0A2F94FF40050ADF8000048208DF8AC
:103F6000030003208DF802006946964804F0D8FE4D
:103F70004FF40051934804F080FF0820ADF8000092
:103F800010208DF8030069468F4804F0C9FE08210F
:103F90008D4804F072FF8B48406820F47000894916
:103FA00048600846406840F44010486008BD10B5BD
:103FB0000120864908608649C1F88C01322004F04E
:103FC000BAF9002081490860322004F0B4F90020D9
:103FD0007F49C1F88C0110BD10B500207B490860F5
:103FE000322004F0A8F901207949C1F88C0132206F
:103FF00004F0A1F9012075490860322004F09BF912
:1040000010BD10B5322004F096F901206F49086008
:104010006F49C1F88C01322004F08DF900206D4900
:104020000860322004F087F900206B49C1F8B40120
:10403000322004F080F910BD70B5044600261AE065
:1040400004F0800018B101206049086002E00020FF
:104050005E4908606006040E322004F06CF901200D
:104060005C490860322004F066F900205849C1F824
:104070008C01701CC6B2082EE2DB5248406820F466
:104080007000504948600846406840F400004860AD
:10409000322004F050F901204E490860322004F02B
:1040A0004AF94D48D0F8340108B1012500E0002557
:1040B0000020484908604348406820F470004149A6
:1040C00048600846406840F440104860284670BD8B
:1040D00070B500243B48406820F4700039494860BE
:1040E0000846406840F400004860082515E032208A
:1040F00004F021F90120374908606006040E3648B3
:10410000D0F8340108B1601CC4B2322004F013F9B5
:10411000002030490860681EC5B2002DE7DC294840
:10412000406820F47000274948600846406840F421
:1041300040104860204670BD70B505460C4600260C
:10414000FFF735FF4220FFF777FF00B1012664201B
:1041500004F0F1F82846FFF76FFF00B10126642054
:1041600004F0E9F82046FFF767FF00B10126FFF7EA
:1041700033FF304670BD70B504460025FFF717FFCA
:104180004220FFF759FF642004F0D5F82046FFF7DE
:1041900053FF642004F0CFF8FFF71EFF642004F003
:1041A000CAF8FFF704FF4320FFF746FF642004F03E
:1041B000C2F8FFF78DFF0546FFF723FFFFF70CFF5F
:1041C000284670BD0020014000140140B401244283
:1041D000008022428C8122420000244270B50546B4
:1041E000002405E0601CC4B2C82C01DD002070BDB5
:1041F00002213A4806F0A3FB0028F3D029463748AD
:1042000006F04AFB002405E0601CC4B2C82C01DDA6
:104210000020ECE70121314806F091FB0028F3D0A3
:104220002E4806F03BFBC0B2E1E700B587B00121A4
:10423000082005F031F80121880305F03AF84FF421
:104240006040ADF8180018208DF81B0003208DF891
:104250001A0006A9224804F063FD4FF4604120488B
:1042600004F00BFE0020ADF804004FF48270ADF8AE
:1042700006000020ADF808000220ADF80A00012079
:10428000ADF80C004002ADF80E003820ADF810007B
:104290000020ADF812000720ADF8140001A90F4866
:1042A00006F024FA01210D4806F0C5FAFF20FFF7B9
:1042B00095FF07B000BD10B50446084800884FF6CA
:1042C000C7710840054908800846008820430880D7
:1042D0000121024806F0AFFA10BD0000003800408E
:1042E000000C014010B500240020DA49086090203D
:1042F000FFF774FF0020FFF771FF0020FFF76EFF4C
:104300000020FFF76BFFFF20FFF768FF44EA00245F
:10431000FF20FFF763FF04430120CF49C1F8B0013C
:10432000204610BD08B501214FF4947004F0B4FF8D
:104330004FF48050ADF8000010208DF803000320EA
:104340008DF802006946C54804F0EAFC4FF480513C
:10435000C24804F092FD0420ADF800006946C04850
:1043600004F0DEFC0421BE4804F087FD8020ADF897
:1043700000006946BB4804F0D3FC8021B94804F032
:104380007CFDFFF752FF0020FFF795FFFFF7AAFF24
:10439000B549088008BD10B500240020AD4908606B
:1043A0000520FFF71BFFFF20FFF718FF0446012041
:1043B000A949C1F8B001204610BD10B5044600203F
:1043C000A44908600120FFF709FF2046FFF706FF18
:1043D0000120A149C1F8B00110BD10B500209D49D0
:1043E00008600620FFF7FAFE01209B49C1F8B001E2
:1043F00010BD10B50020974908600420FFF7EEFEBD
:1044000001209549C1F8B00110BD2DE9F0410646E3
:104410000C46174600208F4908600320FFF7DEFE98
:10442000C4F30740FFF7DAFEC4F30720FFF7D6FE18
:10443000E0B2FFF7D3FE002505E0FF20FFF7CEFE38
:104440007055681C85B2BD42F7DB012081490860C8
:10445000BDE8F08110B500BFFFF79DFF00F001003F
:104460000028F9D110BD2DE9F04106460C4617464B
:10447000FFF7B3FF0020774908600220FFF7AEFE88
:10448000C4F30740FFF7AAFEC4F30720FFF7A6FE18
:10449000E0B2FFF7A3FE002504E0705DFFF79EFE8B
:1044A000681C85B2BD42F8DB01206A490860FFF74D
:1044B000D1FFBDE8F0812DE9F04107460E461446D4
:1044C000F0B2C0F58075AC4200DC254612E02A4609
:1044D00031463846FFF7C7FFAC4200D10BE02F440E
:1044E0002E44601B84B2B4F5807F02DD4FF48075EA
:1044F00000E02546EBE700BFBDE8F08110B50446BB
:1045000021465AA00EF0F8FB2403FFF766FFFFF7E1
:10451000A1FF00204F4908602020FFF75FFEC4F391
:104520000740FFF75BFEC4F30720FFF757FEE0B23A
:10453000FFF754FE01204849C1F8B001FFF78AFF98
:1045400010BD2DE9F04781460F4616464FEA173851
:10455000C7F30B0ACAF58054A64200DC344644E097
:104560004FEA08314FF480524248FFF74EFF0025D2
:1045700008E00AEB05003F49085CFF2800D003E093
:10458000681C85B2A542F4DB00BFA54216DA40469E
:10459000FFF7B4FF002507E019F8050005EB0A0155
:1045A000344A5054681C85B2A542F5DB4FEA083105
:1045B0004FF480522F48FFF77EFF04E02246394631
:1045C0004846FFF778FFA64200D10FE008F1010846
:1045D0004FF0000AA1442744301B86B2B6F5805F35
:1045E00002DD4FF4805400E03446B9E700BFBDE877
:1045F000F08710B5FFF7F1FEFFF72CFF00201549FB
:104600000860C720FFF7EAFD01201349C1F8B00197
:10461000FFF720FF10BD10B500200E490860B9203B
:10462000FFF7DCFD01200C49C1F8B001032003F0C5
:1046300082FE10BD10B5002006490860AB20FFF7D0
:10464000CDFD01200449C1F8B001032003F073FE41
:1046500010BD0000B081214200802142000C0140C9
:1046600000140140002001403600002066653A2514
:10467000780D0A008E02002001460020012900D09A
:1046800011B9FE4B197000E0262070470146FC4A24
:10469000506820F0FF0008435060704770B5044632
:1046A00005E0F748456B05F0450000B100E0F8E78C
:1046B00000BF042006F069FB20B1042006F06FFB68
:1046C000032070BD012006F060FB20B1012006F040
:1046D00066FB0120F5E7EA480069A04201D01020FE
:1046E000EFE740F2FF50E649886308464069082139
:1046F0000840C0B2E5E72DE9FC4107460D4600261B
:1047000000240020009001900820DE49086010205D
:104710004860402088600020C8604FF480600861D5
:10472000084606F0BBFA1020FFF7B8FF044614B1A4
:104730002046BDE8FC81D44800880004D1490860C7
:1047400037204860402088600020C8604FF48060B7
:104750000861084606F0A2FA3720FFF79FFF0446DB
:104760000CB12046E5E74FF0FF30C849086008204B
:104770004860302088600220C86000200861012065
:104780004861084606F0B3FA0020BE4908603320AD
:104790004860402088600020C8604FF48060086155
:1047A000084606F07BFA3320FFF778FF04460CB189
:1047B0002046BEE70CE04FF4001006F0E6FA38B1F0
:1047C00006F0B7FA4DF82600761C022E00D306E05C
:1047D000AB48406B40F22A6108400028EBD000BF94
:1047E000082006F0D2FA20B1082006F0D8FA0420FA
:1047F0009FE7022006F0C9FA20B1022006F0CFFAA6
:10480000022096E7202006F0C0FA20B1202006F012
:10481000C6FA06208DE74FF4007006F0B6FA28B10C
:104820004FF4007006F0BBFA072082E740F2FF5019
:1048300006F0B5FA00980006009901F47F4140EABD
:104840000120009901F47F0140EA1120009940EA1B
:104850001160686001980006019901F47F4140EA07
:104860000120019901F47F0140EA1120019940EAF9
:104870001160286020465CE77CB5054600240020D6
:104880000090019000260DB1022600E000267C4831
:10489000406900F0007008B10E207CBD7A4909889B
:1048A00088B26946FFF727FF04460CB12046F4E7BB
:1048B000019800F4802060B37348008800047149B7
:1048C000086037204860402088600020C8604FF4AE
:1048D00080600861084606F0E1F93720FFF7DEFE48
:1048E00004460CB12046D8E76648066006206549B4
:1048F0004860402088600020C8604FF480600861F4
:10490000084606F0CBF90620FFF7C8FE044620460D
:10491000C3E72520C1E770B5044600255C48007850
:10492000032801D1272070BD5948007838B1584874
:104930000078012803D056480078022818D1022CAC
:1049400001D32720EFE7E0B2FFF796FF05467DB9D8
:104950004B48406820F4C0504949486008464068C8
:10496000A1B240EAC1204649486008464068486014
:104970002846D8E710B5044642480460072041495C
:104980004860402088600020C8604FF48060086163
:10499000084606F083F90720FFF780FE10BDF0B54A
:1049A0000146002000223A4B1B7881F85630364BE6
:1049B0001B88A1F85430374B1B681A0E93090B70F3
:1049C000C2F383034B7002F003038B70314B1B68FF
:1049D000C3F30742CA702F4B1B88C3F307220A7127
:1049E0002C4B1A784A715B681A0E1301CB80294B45
:1049F0005B68C3F30742CB8843EA1213CB8002F013
:104A00000F030B72234B9B88C3F30722D3094B720E
:104A1000C2F380138B72C2F34013CB72C2F3001344
:104A20000B7300234B731A4B1B783BB1184B1B784D
:104A3000012B03D0164B1B78032B5ED193071B0D64
:104A40000B61144B1A790B6943EA82030B61114B1A
:104A50009B681A0E0B6943EA92130B61C2F3C203FF
:104A60000B7502F007034B750A4B9B68C3F30742B3
:104A700053098B75C2F38203CB750DE04000002013
:104A800000800140A81200203C000020BC12002041
:104A900038000020D412002093075B0F0B76F74BF1
:104AA0001B89C3F307220B7E43EAD2130B760B69F3
:104AB0005B1C0024C1E912340B7E9B1C012404FA08
:104AC00003F3DC17D1E91256A5FB037C06FB03C3F5
:104AD00005FB0433C1E912730C7A0123A3400B6573
:104AE0000024D1E912650B6DA6FB037C05FB03C313
:104AF00006FB0433C1E912732EE0E14B1B78022B55
:104B00002AD1DE4B1A7993069B0A0B61DB4B9B681B
:104B10001A0E0B6943EA02230B61D84B9B68C3F35F
:104B200007420B6913430B61D44B1B89C3F3072264
:104B30000B695B1C4FF40074A3FB04464FF48063C5
:104B40000025A4FB037C06FB03C304FB0533C1E97A
:104B500012734FF400730B65C2F3801301F8193F11
:104B600093065B0E4B70C54B1A7A4B7843EAD2130F
:104B70004B7002F07F038B70C04BDB681A0ED309B9
:104B8000CB70C2F341130B71C2F382034B719307D5
:104B90001B0F8B71B94BDB68C3F307428B7943EA78
:104BA00092138B71C2F34013CB7100230B7202F08E
:104BB00001034B72B14B9B89C3F30722D3098B725C
:104BC000C2F38013CB72C2F340130B73C2F3001312
:104BD0004B73C2F381038B7302F00303CB73A74BB8
:104BE0001A7B53080B7401234B74A64B1B681A0ED7
:104BF000CA741939A34B1B68C3F307421402CC854E
:104C0000A04B1B88C3F30722CB8D1343CB859D4B51
:104C10001A7814060C635B681A0E0B6B43EA0244A5
:104C20000C63984B5B68C3F307420B6B43EA0224A7
:104C30000C63944B9B88C3F307220B6B13430B63EA
:104C4000904B1A7934235A548E4B9B681A0E352395
:104C50005A548C4B9B68C3F3074214068C63894BF0
:104C60001B89C3F307228B6B43EA02448C63854B99
:104C70001A7A8B6B43EA02248C63824BDB681A0E30
:104C80008B6B13438B637F4BDB68C3F307423C237F
:104C90005B5C43EA12143C235C5413071C0DCC8765
:104CA000784B9B89C3F30722CB8F1343CB87754B7C
:104CB0001A7B540840235C54012441235C54F0BD0A
:104CC00070B500264FF4803505E06F48446B04F062
:104CD000450000B103E0281EA5F10105F5D100BF94
:104CE00015B104F0040028B10326042006F057F89B
:104CF000304670BD012006F048F818B101260120A9
:104D000006F04DF840F2FF5006F049F83046F0E763
:104D10002DE9F04105460E464FF0000805E05A48DF
:104D2000476B07F0450000B100E0F8E700BF042042
:104D300006F02BF828B1042006F031F80320BDE876
:104D4000F081012006F021F820B1012006F027F8BB
:104D50000120F4E74C480069A84201D01020EEE79A
:104D600040F2FF5006F01BF84748446904F46040E5
:104D700018B9200C30804046E1E704F4005008B137
:104D80001320DCE704F4804008B11020D7E704F4D6
:104D9000004008B10F20D2E74046D0E738B50024E4
:104DA0000120009005F065FF08B9252038BD344882
:104DB0000078042821D0002034490860022048608F
:104DC000C02088600020C8604FF4806008610846F9
:104DD00005F064FFFFF774FF04460CB12046E5E7D9
:104DE0002948406927490860274880694860264863
:104DF000C06988602448006AC8602148007858B1BA
:104E00001F480078012807D01D480078062803D0E5
:104E10001B480078022816D100201C490860032096
:104E20004860402088600020C8604FF480600861BE
:104E3000084605F033FF69460320FFF769FF044683
:104E40000CB12046B2E70E480078032820D1BDF807
:104E5000000000040D49086003204860402088607D
:104E60000020C8604FF480600861084605F016FF16
:104E7000FFF726FF04465CB1204697E7D4120020D6
:104E800038000020E412002000800140A812002019
:104E9000FE480078042827D0BDF80000FC490860CF
:104EA000BDF800000004FB49086009204860C020EC
:104EB00088600020C8604FF480600861084605F0F3
:104EC000EDFEFFF7FDFE04460CB120466EE7F2480A
:104ED0004069F2490860F04880694860EE48C0695E
:104EE0008860ED48006AC86000205FE710B505E003
:104EF000E948446B04F0450000B100E0F8E700BF6A
:104F0000042005F042FF20B1042005F048FF0320F3
:104F100010BD40F2FF5005F042FF0020F8E770B5E9
:104F200000264FF4803505E0DB48446B04F0450073
:104F300000B103E0281EA5F10105F5D100BF15B1B0
:104F400004F0040028B10326042005F028FF3046B1
:104F500070BD04F0400018B10026402005F01FFF8E
:104F60003046F5E770B500254FF4803404E080202A
:104F700005F00BFF00B103E0201EA4F10104F6D1FF
:104F800000BF0CB9032070BD40F2FF5005F007FFD1
:104F90002846F8E72DE9F0470027002400260025E1
:104FA000A046A146B220BE490875002008604860AE
:104FB0008860C8600861084605F030FE032005F0EF
:104FC0004DFE012005F047FE00BF12E00020B14970
:104FD000086048608860C8604FF4806008610846D7
:104FE00005F05CFEFFF7BEFF044604B903E0781C41
:104FF000C7B24A2FEADB00BF14B12046BDE8F087F4
:105000004FF4D570A34908600820486040208860AC
:105010000020C8604FF480600861084605F03EFE3D
:10502000FFF77DFF044624B90120984908704FF02E
:1050300080490020974908603720486040208860F8
:105040000020C8604FF480600861084605F026FE25
:105050003720FFF723FB0446002C4BD134E000201F
:105060008C49086037204860402088600020C86074
:105070004FF480600861084605F010FE3720FFF706
:105080000DFB04460CB12046B8E7864849EA00000B
:105090008049086029204860402088600020C8605E
:1050A0004FF480600861084605F0F8FDFFF71EFF29
:1050B00004460CB12046A1E777484669012080EA02
:1050C000D67080F001086D1CB8F1000F03D14FF6C7
:1050D000FF708542C3D34FF6FF70854202D31B2475
:1050E00020468BE706F08040061E32D0022067493A
:1050F00008702EE01CE06C4866490860012048609A
:10510000402088600020C8604FF480600861084635
:1051100005F0C4FDFFF7EAFE04460CB120466DE73A
:105120005D484669012080EAD67080F001086D1C58
:10513000B8F1000F03D14FF6FF708542DBD34FF675
:10514000FF70854202D31B24204657E703204F49B6
:105150000870204652E77CB500250024012130204C
:1051600004F09AF8012140F2024004F088F84FF46C
:10517000F850ADF8000018208DF8030003208DF8DA
:1051800002006946494803F0CBFD0420ADF8000059
:1051900018208DF8030003208DF80200694644486A
:1051A00003F0BEFD8020ADF8000048208DF803001C
:1051B00003208DF8020069463D4803F0B1FD05F07B
:1051C0001FFD31208DF8040000208DF805008DF8BA
:1051D000060001208DF8070001A803F0D2F9FFF7BF
:1051E000D9FE044614B9FFF7D9FD04461CB931486D
:1051F000FFF7D5FB044634B92E49B1F85410080422
:10520000FFF7B8FB04461CB90120FFF784FB0446F6
:105210001CB11E480078032812D1264890F8560089
:1052200020B1244890F85600012801D10A2500E059
:1052300004252846FFF72AFA0020FFF71DFA044646
:1052400020467CBD10B5002005F008FD002010BDF3
:1052500070B58CB006460C4615460121022004F0BC
:105260000EF8154805F0A2FB0021134805F06BFC71
:1052700009488030019002960395A0080490002010
:105280000590802006908000079017E038000020ED
:105290003C000020A812002000800140D412002011
:1052A00090120020000010800080FF80001001405C
:1052B00000140140F81200204404024080000890CD
:1052C000002009904FF400500A9000200B9001A993
:1052D000FA4805F00DFC0021F84805F034FC0CB04C
:1052E00070BD0146002002E04910421CD0B20129E5
:1052F000FAD170472DE9F84F8146174698460A9C27
:105300004FF0000AD3464D464FF0FF36B9F1000F7B
:1053100002D12620BDE8F88F0020E949C862E9489B
:105320000078022805D10402780A40EAC8574FEAFB
:1053300068280020E44988604860401E0860012019
:1053400048610020C8600861084605F0D0FCDC48D0
:10535000406900F0007008B10E20DBE7002C21DD71
:10536000B4F5006F1EDC601E2040D8B92046FFF760
:10537000B8FF0090D54804601020D4494860402010
:1053800088600020C8604FF480600861084605F01E
:1053900085FC1020FFF782F98246BAF1000F03D096
:1053A0005046B7E72620B5E700980001C649886057
:1053B000084644604FF0FF30086001204861022039
:1053C000C86000200861084605F091FCBF480760EE
:1053D0001120BE494860402088600020C8604FF41A
:1053E00080600861084605F059FC1120FFF756F966
:1053F0008246BAF1000F01D050468BE7B4480078DE
:1054000000285AD102F0F0FF18E04FF4004005F0F8
:10541000BCFC78B14FF0000B06E0A9488030006872
:1054200045F82B000BF1010BBBF1080FF5D320352C
:10543000A84E03E00EB904206CE7761EA048406B2E
:1054400040F22A6108400028DFD0082005F09DFCCA
:1054500020B1082005F0A3FC04205BE7022005F042
:1054600094FC20B1022005F09AFC022052E7202093
:1054700005F08BFC20B1202005F091FC062049E7C7
:105480004FF4007005F081FC28B14FF4007005F076
:1054900086FC07203EE703E005F04BFC28602D1D4D
:1054A0004FF4001005F071FC0028F5D102F09EFFCA
:1054B00040F2FF5005F073FC32E085480078012887
:1054C0002ED1002221464846FFF7C2FE0020824925
:1054D000087082490870824908707948C06B40F2B0
:1054E0002A3108437649C863012005F0D4FB00E067
:1054F000761E72484438006800F4005038B9784885
:10550000007820B97448007808B9002EF0D10EB99F
:105510000420FFE67048007810B16F4890F800A0B2
:105520005046F7E62DE9FF5F17469846DDE90E463F
:105530004FF00009CA464FF0FF356A4900980860ED
:1055400000205F49C8625F480078022805D1040244
:10555000780A40EAC8574FEA682800205A4988600C
:105560004860401E0860012048610020C860086152
:10557000084605F0BCFB5248406900F0007018B1C5
:105580000E2004B0BDE8F09F002C21DDB4F5006FC3
:105590001EDC601E2040D8B92046FFF7A2FE8346DD
:1055A0004A48046010204949486040208860002033
:1055B000C8604FF480600861084605F06FFB10205A
:1055C000FFF76CF88146B9F1000F03D04846D8E7E1
:1055D0002620D6E7012E70D906FB04F0B0F1007F3B
:1055E00001D32620CDE74FEA0B103749886006FB30
:1055F00004F048604FF0FF3008600120486102204D
:10560000C86000200861084605F071FB2F4807605C
:1056100012202E494860402088600020C8604FF466
:1056200080600861084605F039FB1220FFF736F864
:105630008146B9F1000F01D04846A2E7244800781E
:1056400000287DD102F0D0FE1EE04FF4004005F0AE
:105650009CFBA8B14FF0000A08E0194880300068B0
:105660002049096841F82A000AF1010ABAF1080F35
:10567000F3D31C48006820301A490860154D03E038
:105680000DB904207DE76D1E0D48406B40F22A31B4
:1056900008400028D9D0082005F077FB20B1082069
:1056A00005F07DFB04206CE7022005F06EFBD8B10D
:1056B000022005F074FB022063E7A4E044040240EA
:1056C0000080014038000020BC120020A8120020F9
:1056D00040000020FFFF7F0042000020410000202A
:1056E0004300002044000020202005F04EFB20B1A4
:1056F000202005F054FB062043E74FF4007005F02E
:1057000044FB28B14FF4007005F049FB072038E74F
:1057100009E005F00EFBFA4909680860F8480068DE
:10572000001DF74908604FF4001005F02EFB00281B
:10573000EFD14FF4807005F028FB20B3F14800E072
:1057400028E0007838B1EF480078012803D0ED4810
:105750000078022817D10020EB4908600C2048602F
:10576000402088600020C8604FF4806008610846CF
:1057700005F094FA0C20FEF791FF8146B9F1000F75
:1057800001D04846FDE602F031FE40F2FF5005F040
:1057900006FB38E0DD480078012834D106FB04F12F
:1057A00000220098FFF754FD0020D949087001201D
:1057B000D84908700020D8490870D848C06B40F21A
:1057C0002A310843D549C8630846C06A40F008003A
:1057D000C86200E06D1ED248006800F4005008B9AD
:1057E000002DF7D10DB90420CBE600BFCA480078E0
:1057F00018B9C74800780028F8D0C548007810B11B
:10580000C34890F800904846BBE61CB5044600200B
:1058100001900090C34800880004BB4908600D2037
:105820004860402088600020C8604FF480600861B4
:10583000084605F033FAB948406B009002E0B748DB
:10584000406B0090009800F045000028F7D0012040
:1058500005F09BFA20B1012005F0A1FA01201CBD42
:10586000042005F092FA20B1042005F098FA0320F4
:10587000F5E7AA4800690D2801D01020EFE740F2B3
:10588000FF5005F08CFAA548406901900198C0F3DB
:10589000432020700020E2E72DE9FF5F86B0174625
:1058A0009846149D0026002005900490002481460F
:1058B0000390824602900195DDF818B0DDF818B02B
:1058C000BBF1000F03D126200AB0BDE8F09F0020F5
:1058D0009249C862944988604860401E086001206F
:1058E00048610020C8600861084605F000FA8B484E
:1058F000406900F0007008B10E20E5E781480078AB
:10590000022805D10502780A40EAC8574FEA6828FC
:10591000002D1FDDB5F5006F1CDC681E2840C8B9DE
:105920002846FFF7DEFC0590774805601020764991
:105930004860402088600020C8604FF480600861A3
:10594000084605F0ABF91020FEF7A8FE06461EB18A
:105950003046B9E72620B7E77248008800046A4954
:1059600008600D204860402088600020C8604FF427
:1059700080600861084605F091F90D20FEF78EFE63
:1059800006460EB130469FE76448406903904FF0E9
:10599000FF341BE0641E6348008800045A49086015
:1059A0000D204860402088600020C8604FF480606F
:1059B0000861084605F072F90D20FEF76FFE0646F5
:1059C0000EB1304680E7554840690390039800F4D3
:1059D000807008B9002CDDD10CB9292074E74A4841
:1059E0000760182048494860402088600020C8604F
:1059F0004FF480600861084605F050F91820FEF762
:105A00004DFE06460EB130465EE700204149087063
:105A10000598000144498860084645604FF0FF3012
:105A20000860012048610020C8600861084605F050
:105A30005EF94FF0FF343548007800285FD102F05E
:105A4000D3FC43E04FF4804005F09FF9C8B30198C0
:105A5000A0EB0900202821D20198A0EB090000F05A
:105A6000030020B90198A0EB0900800804E0019828
:105A7000A0EB09008008401C02904FF0000A09E0EA
:105A8000DBF8000005F059F90AF1010A0BF1040BEB
:105A900009F1040902988245F2D30FE04FF0000AA1
:105AA00005E05BF82A0005F048F90AF1010ABAF1AD
:105AB000080FF6D30BF1200B09F120096FF04044D9
:105AC00004E0FFE70CB90420FEE6641E1348406BB7
:105AD00040F21A6108400028B4D0082005F055F9BA
